:100000000C9457000C94210E0C94210E0C94210E8C
:100010000C94210E0C94210E0C94210E0C94210EA4
:100020000C94360A0C94210E0C94210E0C94210E83
:100030000C94210E0C94210E0C949A0A0C94210E0F
:100040000C94210E0C94210E0C94210E0C94D904C6
:100050000C94210E0C94210E0C94210E0C94210E64
:100060000C94680A0C94210E0C94210E0C94210E11
:100070000C94210E0C94F60D0C94210E0C94210E70
:100080000C94210E0C94210E0C94260B0C94210E32
:10009000600060528060526068001C626068607638
:1000A0008060766083001C78608360B180008091FE
:1000B00001108F7C8060806898ED94BF8093011060
:1000C00011241FBECFEFCDBFDFE7DEBFE0E9F0E0D8
:1000D00040E017C0B591A59135912591059107FD97
:1000E0000CC095918591EF01F92FE82F05900D92A5
:1000F000A217B307D9F7FE0104C01D92A217B307D8
:10010000E1F7ED3AF40731F70E94010D0C94660D0A
:04011000F894FFCF91
:1001140053657474696E672075702056454D4C3371
:100124003332382E2E2E0D0A00523A202575090935
:10013400473A2025750909423A2025750909414D98
:100144004249454E543A202575094946523A2025DC
:10015400750A0D0050726F6772616D2069732073A8
:0D01640074617274696E672E2E2E0D0A00F4
:100171007B0B440D1B0E1E0EE40DEA0DF00DD80D88
:10018100DE0DBA0C0F0E00000000000000000000A0
:100191008D09000000000000AA0DB10DB80D00008E
:1001A100420CCE0CCC0DD20D000EA30D9C0DFB0DFF
:0601B100050E0A0E00001D
:1001B700950D710D7B0DA10B6B07180EC60D070C66
:0201C700380DF1
:1001CA00AEE0B0E0EBEEF0E00C945E0C4C016B019B
:1001DA0019821A828FEF9FEF8B839C831D821E8266
:1001EA004F83588729873A87A12CB12CD6016D9065
:1001FA007C90F301EA0DFB1D808181110FC0D601AD
:10020A00ED93FC938081853209F0D3C13F01BFEFA2
:10021A006B1A7B0AF6016082718219C0853279F302
:10022A00B401082E000C990B0E94B8074FEFA41ACC
:10023A00B40ADCCF8C32ACF08D32F9F489819A8120
:10024A00816089839A833196D601ED93FC93D60116
:10025A00ED91FC9180818B3269F789819A81846062
:10026A00F0CF803221F489819A818860EACF833283
:10027A0051F489819A818061E4CF803321F48981A4
:10028A009A818260DECFB701C6010E94F80A8D8387
:10029A009E8397FF0BC029813A81B1E02B272983DE
:1002AA003A839195819591098D839E8389819A815B
:1002BA0080FF03C08D7F89839A83D601ED91FC91DB
:1002CA00119780818E3249F43196ED93FC93B701F0
:1002DA00C6010E94F80A8B839C83C6010E94E70B21
:1002EA00582ED601ED91FC918081082E000C990BB5
:1002FA000E948D0D893609F443C084F4833609F4CB
:10030A0002C134F4853209F427C18136E1F030C1E3
:10031A008436B1F188360CF4D9C02AC1803709F481
:10032A009AC03CF48E3609F4BCC08F3609F461C019
:10033A001FC1853709F440C0883709F476C083376E
:10034A0009F016C1F3C0652D70E0A701CE010B9626
:10035A000E940000892B09F426C1D601ED91FC9177
:10036A001197CF0101968D939C932081AE01455F31
:10037A005F4FBE016F5F7F4FC4010E94000010C132
:10038A00652D70E0970141E050E0CE010B960E9486
:10039A004506892B09F407C1F601808191810196EE
:1003AA0080839183AE01455F5F4FBE016F5F7F4FD0
:1003BA00C4010E94D305F4C0652D70E0970140E0A6
:1003CA0050E0CE010B960E944506892B09F4EBC03A
:1003DA00D6018D919C91119701968D939C93AE01B4
:1003EA00455F5F4FBE016F5F7F4FC4010E94940853
:1003FA00D7C0652D70E0970140E050E0CE010B9622
:10040A000E944506892B09F4CEC0F60180819181AC
:10041A00019680839183AE01455F5F4FBE016F5F96
:10042A007F4FC4010E941207BBC0652D70E097017F
:10043A0040E050E0CE010B960E944506892B09F454
:10044A00B2C0D601ED91FC911197CF0101968D931F
:10045A009C9320811CC0970140E050E060EF70E05F
:10046A00CE010B960E944506892B09F49CC0F60121
:10047A00808191810196808391838B859C85892BCC
:10048A0029F420E030E04DE750E684C028E7AE01C9
:10049A00455F5F4FBE016F5F7F4FC4010E94EB0350
:1004AA007FC0A501400F511F652D70E09701CE0155
:1004BA000B960E940000892B09F475C0D6018D9114
:1004CA009C91119701968D939C9373C0652D70E052
:1004DA00A701CE010B960E940000892B09F463C084
:1004EA00D601ED91FC911197CF0101968D939C93C2
:1004FA002081AE01455F5F4FBE016F5F7F4FC40130
:10050A000E9400004DC0B0E85B124DC0F601808128
:10051A009181019680839183D701ED91FC91119786
:10052A00CF0102968D939C93808120C0B0E85B1224
:10053A003AC0F60180819181019680839183D70127
:10054A00ED91FC911197CF0102968D939C93408176
:10055A00518120E030E01EC0B0E85B1224C0F601F1
:10056A00208131812F5F3F4F208331838B870DC0DC
:10057A0085E28B87D6016D927C9219821A821D823E
:10058A001E828FEF9FEF8B839C8321E030E0AE01C8
:10059A00455F5F4FBE016F5F7F4FC4010E94510BE1
:1005AA008A0D9B1D07C0F601808191810196808387
:0C05BA009183C5012E96EFE00C948F0C8D
:1005C600CF93DF93CDB7DEB72597CDBFDEBF84E1EE
:1005D60091E80E944C0819821A821B821C821D8295
:1005E6000E94F20C8111FCCF43E050E0BE016F5F28
:1005F6007F4F80E190E00E94CA0A0E94500D0E943F
:100606005B0D6436710581059105C8F368947724FE
:1006160072F80F2EF5E08F2EF02D0F2EF6E09F2E9E
:10062600F02D0F2EF7E0AF2EF02D6894BB24B3F813
:100636000F2EFDE2CF2EF1E8DF2EF02D0F2EF2E089
:10064600EF2EF0E6FF2EF02D79820E94F20C81113A
:10065600FCCF02E010E09E012C5F3F4F41E050E0EE
:10066600BE016F5F7F4F80E190E00E94FF098D81A0
:1006760090E0982F88272C81822B8093AF609093EF
:10068600B06089820E94F20C8111FCCF02E010E07A
:100696009E012C5F3F4F41E050E0BE016F5F7F4FF0
:1006A60080E190E00E94FF098D8190E0982F8827D5
:1006B6002C81822B8093AD609093AE6099820E94CC
:1006C600F20C8111FCCF02E010E09E012C5F3F4F3F
:1006D60041E050E0BE016F5F7F4F80E190E00E94F5
:1006E600FF098D8190E0982F88272C81822B80939B
:1006F600A9609093AA60A9820E94F20C8111FCCF96
:1007060002E010E09E012C5F3F4F41E050E0BE0149
:100716006F5F7F4F80E190E00E94FF098D8190E03E
:10072600982F88272C81822B8093AB609093AC60A6
:10073600B9820E94F20C8111FCCF02E010E09E010A
:100746002C5F3F4F41E050E0BE016F5F7F4F80E17D
:1007560090E00E94FF098D8190E0982F88272C81D8
:10076600822B8093A7609093A860E091A760F09198
:10077600A8606091AF607091B0604091AB6050919D
:10078600AC602091A9603091AA608091AD60909193
:10079600AE60FF93EF937F936F935F934F933F9377
:1007A6002F939F938F93DF92CF92FF92EF920E94A7
:1007B600E00CC7010E944C080E94500DCDBFDEBF61
:1007C6000E945B0D683E734081059105C8F33CCFDE
:1007D600AFE0B0E0E1EFF3E00C945B0C1C016B01C1
:1007E60049835A832B83FB01828193818480958080
:1007F60000811181A680B78097FD02C00D7F02C0DF
:1008060081E090E0E981FA814080518062807380C6
:100816009801207133272C833D83740104FF08C09F
:10082600411451046104710419F032E0E31AF1082D
:10083600F801E870FF27EE83FF8303FF03C0F1E0B2
:10084600EF1AF108F6010084F185E02D3197EE8765
:10085600FF87EA0DFB1D10829C012E193F09288790
:100866003987C801827099278A879B87EB818E2FEB
:10087600EE0F990B9C01215431092C873D872E855B
:100886003F852230310530F48C819D81892B09F01A
:1008960042C05CC0411451046104710461F18E854B
:1008A6009F8501978E879F87C2018F7099278A300F
:1008B600910514F4C09602C0895A9F4FEC85FD85B8
:1008C6007A9748F49C012062215631092A31310574
:1008D60010F40E94840DEE85FF85EA0DFB1D8083D2
:1008E600F1E0EF1AF10884E0769467945794479400
:1008F6008A95D1F7C4CF888599858E0D9F1D1816C8
:1009060019066CF21E141F040CF0BECFEA85FB8597
:10091600EF2B29F6B9CFE981FA8180819181A281F5
:10092600B381892B8A2B8B2B89F0EE85FF85EA0D07
:10093600FB1D31972B8120838E859F8502978E879D
:100946009F87FC01EA0DFB1D80E38083EE81FF811A
:10095600EF2B59F02E853F85215031092E873F8791
:10096600F901EA0DFB1D80E28083F6014085518581
:10097600415051092E853F85421B530BB9016A0D23
:100986007B1D9401C1010E94C6099C01F101808171
:10099600918190FF06C0F6018281938182179307A9
:0C09A6000CF4C9012F96E2E10C948C0CBB
:1009B2001F920F920FB60F9211242F933F934F93D2
:1009C2005F936F937F938F939F93AF93BF93CF93D5
:1009D200DF93EF93FF93809105098C7109F447C06F
:1009E2008091050982FD04C08091050983FF0AC038
:1009F200E8E6F0E686E0858783E084878CE08093F2
:100A020005091DC080910709882359F080910509C5
:100A120084FF07C0E8E6F0E685E0858781E0848709
:100A22000EC080910809882351F08091050984FF46
:100A320006C0E8E6F0E685E0858782E08487C8E6BE
:100A4200D0E6ED85F0E0EE0FFF1FE954FE4701907E
:100A5200F081E02D09958D878C858823C9F0E0917E
:100A62008F60F0919060309799F0099511C0809154
:100A72000509807E69F0C8E6D0E6ED85F0E0EE0F6C
:100A8200FF1FE954FE470190F081E02D09958D8703
:100A9200FF91EF91DF91CF91BF91AF919F918F9194
:100AA2007F916F915F914F913F912F910F900FBE68
:060AB2000F901F90189543
:100AB800CF93DF9380E094E0FC011482C0E4D4E09B
:100AC8001C82A0E6B4E020E114962C93149740EA27
:100AD80054E0FA011482FC01108218822C9320E25F
:100AE800FA012083FC01108A118A128A138A148A57
:100AF800158A168A178A188A198A1A8A1B8A1C8ADA
:100B08001D8A1E8A1F8A50961C92509751961C92D5
:100B1800519752961C92529753961C9253975496FB
:100B28001C92549755961C92559756961C92569718
:100B380057961C92FA01108A118A128A138A148A0B
:100B4800158A168A178AE0EEF5E01182108215825E
:100B5800178210861186168283E0828385E29EE0E2
:100B68008093996090939A6086E29EE08093976064
:100B78009093986087E29EE080939560909396604A
:100B880088E29EE0809393609093946089E29EE06F
:0E0B98008093916090939260DF91CF910895C9
:100BA600A2E0B0E0E9EDF5E00C945B0C3C016B01D2
:100BB600FB0122813381A480B58080819181898364
:100BC6009A8386809780FA01208031804280538004
:100BD600B201A10157FE07C044275527BA014219A1
:100BE60053096409750937FD03C08D7F89839A838C
:100BF600950157FC05C0898182FD02C083FF02C0B2
:100C060021503109CE0101967C010AE010E0C601AF
:100C16000E94AD0657FC03C0298122FF0AC0019736
:100C2600F401E80FF91F57FC02C02BE209C02DE2C0
:100C360007C023FF06C00197F401E80FF91F20E261
:100C4600208309811A81F601408551854150510959
:100C5600481B590BB401680F791F9501C3010E9407
:100C6600C6099C01F3018081918190FF06C0F601BF
:100C760082819381821793070CF4C9012296E2E1DF
:040C86000C948C0C32
:100C8A00CF93DF93DC01F90168387105F1F05CF468
:100C9A006138710561F164387105A1F16038710537
:100CAA0009F051C02FC0603C710509F441C0603F92
:100CBA007105F1F1603A710509F045C0C081D18131
:100CCA00CE0102968083918325C0C081D181CE0155
:100CDA00029680839183452B39F04881042E000CBB
:100CEA00550B660B770B1CC0488150E029C0C081A8
:100CFA00D181CE01049680839183488159816A818A
:100D0A007B810EC0C081D181CE01029680839183FE
:100D1A00452BA1F048815981052E000C660B770BF3
:100D2A004D935D936D937C93139781E090E00DC092
:100D3A00C081D181CE0102968083918348815981F5
:100D4A0060E070E0EDCF80E090E0DF91CF91089510
:100D5A00A0E0B0E0E3EBF6E00C945D0CDC012801C6
:100D6A001696AD90BC901797F701808191811296E3
:100D7A00ED91FC9113971896CD91DC9119972197D3
:100D8A00F7FF02C0E1E0F0E0CA0DDB1D188269013D
:100D9A00A1E0B0E08F01021B130B4C01F2E08F229D
:100DAA009924052C000C66087708CE018A199B093C
:100DBA00CA15DB0519F1411551056105710589F05F
:100DCA00CB01BA01A30192010E94C50BCA01A62F49
:100DDA00B72F605D6A9341E0C41AD108A901BC012A
:100DEA00E4CF98012C0D3D1D121613064CF31C146A
:100DFA001D0434F48114910419F702C080E090E0D4
:100E0A00AB2B31F4F701208131812F7E208331838E
:0A0E1A00CDB7DEB7E0E10C948E0CBA
:100E2400A2E0B0E0E8E1F7E00C945F0C4C016B0148
:100E3400FB01228133816480758080819181898363
:100E44009A83A680B78037FD03C08D7F89839A83F8
:100E5400FA014081518162817381CE0101967C0146
:100E640008E010E09301C6010E94AD06298124FF29
:100E740006C00197F501E80FF91F20E320832981BB
:100E840023FF06C00197F501E80FF91F20E2208334
:100E940009811A81F6014085518541505109481B49
:100EA400590BB501680F791F9301C4010E94C6094B
:100EB4009C01F4018081918190FF06C0F60182813A
:100EC4009381821793070CF4C9012296EEE00C94E7
:020ED400900C80
:100ED600CF93DF938091716090917260019731F4A6
:100EE600E0E0F9E084818460848305C0E0E0F9E015
:100EF60084818B7F8483E8E6F0E68185928501977D
:100F060081879287892BB1F0DF01C781D085E0E028
:100F1600F9E08085888317968D919C9118970196A4
:100F260017968D939C93189784818C7F8260848317
:100F360084E018C0A8E6B0E61796CD91DC91189724
:100F4600E0E0F9E08085888317968D919C9118974B
:100F5600019617968D939C93189784818460848359
:0A0F66000E94070CDF91CF9108955F
:100F70000F931F93CF93DF93DB01109719F48FEF3B
:100F80009FEF3DC02D913C91119730FF25C01696E3
:100F90004D915C91179714962D913C91159742179E
:100FA000530778F41296ED91FC9113978083129673
:100FB0002D913C9113972F5F3F4F12962D933C93A9
:100FC000139716962D913C9117972F5F3F4F1696CA
:100FD0002D933C93179713C01C96ED91FC911D9790
:100FE000309769F2EB01092F182F0995892B39F6F3
:100FF0008E819F8101968E839F83812F902FDF9119
:08100000CF911F910F9108959B
:1010080040E068ED80E690E00E94140E40E068ED54
:1010180081E690E00E94140E40E068ED88E790E0D9
:101028000E94140E4CE068ED88E690E00E94140ED1
:1010380040E068ED89E690E00E94140E40E068ED1B
:1010480080E790E00E94140E40E068ED8CE790E0A5
:101058000E94140E40E068ED82E690E00E94140EB3
:1010680040E068ED83E690E00E94140E40E068EDF1
:1010780084E690E00E94140E40E068ED80E890E07D
:101088000E94140EE0E6F0E0858181FFFDCF08950F
:10109800AF92BF92CF92DF92EF92FF920F931F937E
:1010A800CF93DF937C015C0100E010E00F2EF1E7A5
:1010B800CF2EF1E8DF2EF02D1EC08091A560909113
:1010C800A66001968093A5609093A66005C0D6019E
:1010D8001A96CD91DC911B97FE010995882369F337
:1010E800D6011696ED91FC911797D5018D915D016A
:1010F80009950F5F1F4FF70101900020E9F731971D
:10110800EE19FF090E171F0714F3DF91CF911F91F6
:101118000F91FF90EF90DF90CF90BF90AF90089520
:10112800A2E0B0E0EAE9F8E00C945F0C5C016B0126
:10113800FB0122813381848095808081918189831C
:101148009A836680778037FD03C08D7F89839A8371
:10115800FA014081518162817381CE0101967C013F
:101168000AE010E09401C6010E94AD0609811A81C7
:10117800F6014085518541505109481B590BB3016F
:10118800680F791F9401C5010E94C6099C01F501E9
:101198008081918190FF06C0F60182819381821738
:0E11A80093070CF4C9012296EEE00C94900C13
:1011B600F89480918B6090918C60A0918D60B09135
:1011C6008E600196A11DB11D80938B6090938C60FB
:1011D600A0938D60B0938E608091876090918860B7
:1011E600A0918960B0918A600196A11DB11D80937E
:1011F600876090938860A0938960B0938A6080919D
:10120600836090918460A0918560B091866001961C
:10121600A11DB11D8093836090938460A093856027
:08122600B093866078940895EE
:10122E00A2E8B0E0EDE1F9E00C94610C5C014A013A
:10123E00CF57DF4F68837983C158D040C12CD12C52
:10124E00CF57DF4FE881F981C158D0408081882384
:10125E00E9F07401860120E830E0AE014F5F5F4F88
:10126E00BE016F577F4FC5010E94E5008C0D9D1D7D
:10127E008C159D054CF48FE490E080930060909364
:10128E0001608FEF9FEF03C06C01DACFC601CE571E
:08129E00DF4FECE00C94920C10
:1012A600A0E1B0E0E9E5F9E00C94670CFB01BA01B6
:1012B600AE014F5F5F4F7A0140E1D7011D924A951B
:1012C600E9F742E051E049835A838B839C83F7FF19
:1012D60009C08FE490E080930060909301608FEFE7
:1012E6009FEF14C0A9018C013197ED83FE83C701DE
:1012F6000E94740C4F8158852D813E8142175307F9
:1013060008F49A01F801E20FF31F10826096E6E0F6
:041316000C94980C8F
:10131A001092A3601092A4608091010882FF0CC011
:10132A00E3EAF0E6808182608083E091A160F09137
:10133A00A260309709F009958091010881FF0CC0DD
:10134A00E3EAF0E6808181608083E0919D60F0911C
:10135A009E60309709F009958091010886FF0CC0BC
:10136A00E3EAF0E6808184608083E0919F60F091F7
:10137A00A060309709F009958091A3609091A460CC
:02138A000895C4
:10138C00A0E0B0E0ECECF9E00C94610C6C015B01BA
:10139C007A01E901480181E08822992400FD03C00B
:1013AC004217530750F0A701B501C6010E94250C46
:1013BC00EC16FD0610F0C70117C08E010E191F099F
:1013CC000115110541F0B60180E290E00E94B807CA
:1013DC0001501109F5CF8114910429F4A701B5012D
:1013EC00C6010E94250CCE01CDB7DEB7ECE00C9403
:0213FC00920C51
:1013FE008F929F92AF92BF92CF92DF92EF92FF9217
:10140E000F931F93CF93DF935C016B017A01490118
:10141E000E94F20C811115C0C8E6D0E681E08883E7
:10142E00A982BA828B87CB82DC82ED82FE828F828A
:10143E00988609871A871C860E947B0D8D8781E00E
:10144E0001C080E0DF91CF911F910F91FF90EF903F
:0E145E00DF90CF90BF90AF909F908F90089539
:10146C001F920F920FB60F9211242F933F934F930D
:10147C005F936F937F938F939F93AF93BF93EF93F0
:10148C00FF931B9B05C0E0919560F09196600995C8
:10149C001A9B05C0E0919360F091946009958FEFD1
:1014AC0083B9FF91EF91BF91AF919F918F917F91F4
:1014BC006F915F914F913F912F910F900FBE0F90B5
:0414CC001F901895C0
:1014D0001F920F920FB60F9211242F933F934F93A9
:1014E0005F936F937F938F939F93AF93BF93EF938C
:1014F000FF937D9B05C0E0919960F0919A600995FA
:101500007C9B05C0E0919760F091986009958FEF02
:101510008FB9FF91EF91BF91AF919F918F917F9183
:101520006F915F914F913F912F910F900FBE0F9050
:041530001F9018955B
:101534001F920F920FB60F9211242F933F934F9344
:101544005F936F937F938F939F93AF93BF93EF9327
:10155400FF938091060B80FF0AC0E0919B60F0919D
:101564009C60309709F0099581E08093060BFF9108
:10157400EF91BF91AF919F918F917F916F915F9107
:101584004F913F912F910F900FBE0F901F90189580
:10159400CF92DF92EF92FF920F931F93CF93DF933B
:1015A4006C017B018A010E94F20C811115C0C8E60E
:1015B400D0E681E08883C982DA821B86EB82FC82D2
:1015C4000D831E831F82188619861A861C860E9424
:1015D4007B0D8D8781E001C080E0DF91CF911F9169
:0C15E4000F91FF90EF90DF90CF900895E2
:1015F000DC01ED91FC91119780818A3221F080E02D
:1016000090E03AE00EC03196ED93FC93DB01ED9152
:10161000FC911197CF0102968D939C9380819181CB
:101620000895ED91FC911197208120532A3068F4A0
:10163000389FA001399F500D1124CA01820F911DBE
:0C1640003196ED93FC931197ECCF0895C8
:10164C001F920F920FB60F9211242F933F934F932B
:10165C005F936F937F938F939F93AF93BF93EF930E
:10166C00FF93BD9B05C0E0919160F091926009954C
:10167C008FEF87BBFF91EF91BF91AF919F918F91AE
:10168C007F916F915F914F913F912F910F900FBE72
:06169C000F901F9018954D
:1016A200A0E0B0E0E7E5FBE00C94630C7C01FB01F9
:1016B200EA01C901A280B380C480D5800081118172
:1016C200209711F4C6E7D0E6009719F4CE010E94E4
:1016D200100DB7FC04C0A816B90608F4C50196019E
:1016E200AC01BE01C7010E94C609CDB7DEB7EAE070
:0416F2000C94940CB4
:1016F600E0E0F8E08AE890E080879187158280EC48
:10170600868383E0878313861486168615868BE286
:101716009EE08093A1609093A2608CE29EE080930D
:101726009F609093A0608DE29EE080939D60909371
:0C1736009E601092A3601092A4600895C1
:1017420080916D6090916E60892B99F0E8E6F0E6E9
:1017520085819681019785839683A381B4818C913B
:10176200809308098381948101968383948383E023
:10177200089580917360882321F01092736081E054
:0817820008950E94070C089570
:10178A00A1E21A2EAA1BBB1BFD010DC0AA1FBB1F7B
:10179A00EE1FFF1FA217B307E407F50720F0A21BED
:1017AA00B30BE40BF50B661F771F881F991F1A945A
:1017BA0069F760957095809590959B01AC01BD0184
:0417CA00CF010895AE
:1017CE00CF93DF93EC0190E0E92FF0E0EE0FFF1FD7
:1017DE00EE5AFF498081811102C081810EC0A8811D
:1017EE00B9812C91821305C091811196A883B9837A
:1017FE0001C09F5F9B3040F3892FDF91CF910895F9
:10180E00A0E0B9E014968C911497836014968C9393
:10181E001497E8E6F0E610828FEF90E081839283D2
:10182E001382148217821086158680EC15968C937F
:0C183E00159781E015968C9380E00895CA
:10184A00A0E0B0E0EBE2FCE00C94650C6C01EB016B
:10185A008A017B01E40EF51ECE15DF0541F0899160
:10186A00B601082E000C990B0E94B807F5CFC801E3
:0A187A00CDB7DEB7E8E00C94960C41
:10188400E0E0FBE080818E7F8083118210861482E9
:1018940080EA9FE0848795871286138616828AE2FF
:1018A4009EE080939B6090939C6081E0858380831D
:0218B400089595
:1018B6002F923F924F925F926F927F928F929F925A
:1018C600AF92BF92CF92DF92EF92FF920F931F9348
:1018D600CF93DF93CDB7DEB7CA1BDB0BCDBFDEBF21
:0218E600099463
:1018E800A2E0B0E0EAE7FCE00C94690C8C014983C3
:1018F8005A83AE014F5F5F4F0E941709F80120819C
:1019080024FF02C08FEF9FEF2296E4E00C949A0C1C
:101918002A88398848885F846E847D848C849B8477
:10192800AA84B984C884DF80EE80FD800C811B8185
:10193800AA81B981CE0FD11DCDBFDEBFED010895BB
:10194800E0E0F9E083818E7F8383108212828EE04B
:101958008683178210861582148281EC838381E046
:0C196800858310928F60109290600895AB
:10197400882349F0E0E0F8E08681846086838481EE
:10198400816084830895E0E0F8E08681897F86831E
:0819940084818D7F8483089596
:10199C00E0E0FBE080818E7F8083148615861286C2
:1019AC0013861182108614821582118610828FEF95
:0419BC008683089581
:1019C000A0E0B0E0E6EEFCE00C946B0CAE01475FEB
:1019D0005F4F6F8178858D819E810E94BF0DE2E00F
:0419E0000C949C0CBB
:1019E40080916860811108C090910509937081E02D
:0E19F400913019F480E001C081E08170089507
:101A02000E941E0DE091B381F091B4818BED98E0BC
:0E1A1200099588E591E80E944C080E94E302C5
:101A2000FC01AF014F5F5F4F2081222311F0FA01CB
:0C1A3000F8CF9F01281B390BC901089555
:101A3C000E9404080E945C050E94A40C0E94420CA7
:0A1A4C000E947B0B0E942B0D0895F1
:101A560040E068ED80E191E00E94140EE0E1F1E0E3
:0A1A660012821382789480E0089544
:101A7000E0E0F9E083818E7F8383838181608383CB
:081A80001092686080E00895F7
:101A8800E0E0F8E010861186158216821782138628
:081A98001486168615860895D8
:101AA000F89410928B6010928C6010928D6010925E
:061AB0008E607894089599
:101AB600F89460918B6070918C6080918D609091AC
:061AC6008E607894089583
:101ACC00EC010E942F0E0E942E0ECE010E94300EB1
:061ADC00CE010E94230E62
:101AE2008091696090916A60880F81608093070994
:041AF20084E00895EF
:101AF6008091696090916A60880F8093070983E0FE
:021B0600089540
:101B08009C01215631092A31310510F48F75992726
:021B180008952E
:101B1A009C01215431092A31310508F48062089563
:0E1B2A001092686081E08093050988E00895BC
:0E1B380060910A0B70910B0B80E090E0089515
:0E1B460060910C0B70910D0B80E090E0089503
:0E1B5400009721F08093A1609093A260089505
:0E1B6200009721F080939F609093A0600895FB
:0E1B7000009721F080939D6090939E600895F1
:0E1B7E009A01AB016FEF7FE70E9453090895B3
:0C1B8C0080EC809305090E94380D08953C
:0C1B9800E0E0FBE0808181608083089524
:0C1BA400E0E0FBE080818E7F80830895EC
:0C1BB000E0E0F8E0868180648683089500
:0C1BBC00E0E0F8E086818F7B86830895CE
:0C1BC80080910408881F8827881F08955A
:0C1BD4008091040885FB882780F90895A3
:0C1BE0008091040886FB882780F9089596
:0A1BEC008F938FEF8BB98F9118953E
:0A1BF60060930A0B70930B0B089527
:0A1C000060930C0B70930D0B089518
:0A1C0A006FEF7FEF80E090E0089597
:0A1C140080939B6090939C600895FC
:0A1C1E0080910408869581700895F6
:081C2800FC0164BF4083089534
:061C30000E94070C08955C
:061C3600809100080895F2
:061C3C00809302080895E8
:041C42000C940000FE
:041C46000E94880070
:021C4A000895FB
:021C4C000895F9
:021C4E000895F7
:021C50000895F5
:021C52000895F3
:021C54000895F1
:021C56000895EF
:021C58000895ED
:021C5A000895EB
:021C5C000895E9
:021C5E000895E7
:021C60000895E5
:101C620068076C094C836A9074A07AC00080688807
:061C720000846C82008179
:071C7800286E756C6C290059
:061C7F00286E696C2900CB
:02000004008278
:090000000000000000D00800001F
:00000001FF
