:100000000C9457000C9434130C9434130C94341344
:100010000C9434130C9434130C9434130C94341344
:100020000C94060E0C9434130C9434130C94341367
:100030000C9434130C9434130C946A0E0C943413F3
:100040000C9434130C9434130C9434130C9436071E
:100050000C9434130C9434130C9434130C94341304
:100060000C94380E0C9434130C9434130C943413F5
:100070000C9434130C9403130C9434130C94341315
:100080000C9434130C9434130C9408130C94341300
:1000900060006052806052607800268660786086DA
:1000A00080608660960026AC609660AF800080918C
:1000B00001108F7C8060806898ED94BF8093011060
:1000C00011241FBECFEFCDBFDFE7DEBFE0E9F0E0D8
:1000D00040E017C0B591A59135912591059107FD97
:1000E0000CC095918591EF01F92FE82F05900D92A5
:1000F000A217B307D9F7FE0104C01D92A217B307D8
:10010000E1F7ED3AF40731F70E947B120C944212AA
:04011000F894FFCF91
:10011400A90F36122B132E13EB12F112F712DF1262
:10012400E5126A110D130000000000000000000039
:10013400940D0000000000009A12A112A812000001
:1001440025640D0A004672657175656E63793A20FF
:060154002566200D0A00E3
:10015A0093124D125712CF0F740B2813D9129B10FA
:02016A002A1257
:10016C00A5E2B0E0ECEBF0E00C940B118E8F9F8FBE
:10017C006E8B7F8B298FFB010190F081E02DE9873D
:10018C00FA87FB0102811381248135812A8B3B8BF9
:10019C008085918588A399A326803780FA01808079
:1001AC009180A280B38020E030E0A901C501B401A8
:1001BC000E94121387FF06C0B7FAB094B7F8B09438
:1001CC008DE204C0598552FF54C38BE2F101808348
:1001DC002A893B89215031092B833C8341E050E033
:1001EC00488B598B06C08A899B898B839C83188A80
:1001FC00198AD501C401BF770097E0E8AE07EFE795
:10020C00BE0799F4F98D2F2FFF0F330B21543109B1
:10021C0088899989820D931D2A31310518F468E675
:10022C0070E619C06CE670E616C00197A048BF478F
:10023C00A8F0498D242F440F330B215431098889A0
:10024C009989820D931D2A31310518F460E770E607
:10025C0002C064E770E60E948312FAC220E030E02C
:10026C00A901C501B4010E941213C12CD12C20E8A4
:10027C00E22E2FE3F22E19821A82882309F48CC005
:10028C008D829E82AF82B88620E030E040E251E45D
:10029C00C701B6010E9424132B013C01D501C401F6
:1002AC0084199509A609B709B7FF07C0B095A095A1
:1002BC00909581959F4FAF4FBF4F0297A105B10508
:1002CC0044F489819A81019689839A83730162012E
:1002DC00DBCFA5019401C301B2010E94121387FD6B
:1002EC00F0CF8D819E81AF81B8858C199D09AE09A7
:1002FC00BF090196A11DB11D0397A105B10508F415
:10030C0049C01D821E82A5019401C701B6010E943D
:10031C00171318160CF040C0E981FA81E43DFE4F2A
:10032C00E4F44D815E81452BC1F420E030E040E8DF
:10033C005AE5C501B4010E9424134B015C0120E075
:10034C0030E040E85AE5C701B6010E9424136B0166
:10035C007C0181E090E08D839E8320E030E040E2E0
:10036C0051E4C701B6010E9420136B017C01E981A5
:10037C00FA813197E983FA83D501C4018C199D095F
:10038C00AE09BF090196A11DB11D0397A105B105C9
:10039C0008F0B9CF46015701F98D8F2FFF0F990B3C
:1003AC000E948B12888F17FD03C00D831E8304C01F
:1003BC0026E030E02D833E83388D373639F4012B1F
:1003CC0041F441E050E04D835E8303C0288D2F87BC
:1003DC0014C089819A818C3F9F4F0CF44FC2898144
:1003EC009A81ED81FE818E179F070CF047C22981FF
:1003FC003A8137FF46C236E63F874D815E814F5FBB
:10040C005F4F4D835E835F855636B9F489819A813F
:10041C0097FF08C0C12CD12C90E8E92E9FE3F92E50
:10042C0019821A82988D973641F0ED81FE812981CF
:10043C003A81E20FF31FED83FE831C2DDCA2EAA2AE
:10044C000F2D8B869C86AD86BE861C8A1D8A8C8958
:10045C009D89ED81FE818E179F07DCF5212F3CA134
:10046C004AA1502F6B857C858D859E850E9420131B
:10047C000E94B9072B013C010E94B6126A8FA3019E
:10048C009201612F7CA18AA1902F0E9424132B85AD
:10049C003C854D855E850E94AF129B01AC01505886
:1004AC002B873C874D875E8720E030E040E251E4AB
:1004BC00612F7CA18AA1902F0E942013162F7CA360
:1004CC008AA3092F4C895D894F5F5F4F4C8B5D8BE5
:1004DC00BECF20E030E040EA50E4612F7CA18AA13D
:1004EC00902F0E9424132B013C019B01AC016B85C6
:1004FC007C858D859E850E94121387FD0DC0A301FE
:10050C0092016B857C858D859E850E9412138111CD
:10051C0006C0FA8DF0FD03C0412C512C3201A5010F
:10052C009401C301B2010E94B0124B015C0120E0A6
:10053C0030E040E251E4C701B6010E9424136B87FE
:10054C007C8B182F092F9B01482F592FC501B40103
:10055C000E94171387FD14C029813A812F5F3F4FEA
:10056C0029833A833F85363679F44D815E814F5F1E
:10057C005F4F4D835E835B855CA38C898DA30BC021
:10058C00CB86DC8A1E2D0F2D9F85953639F0EB8599
:10059C00ECA3FC89FDA3E980FA8006C02B852CA373
:1005AC003C893DA3E12CF12C48885988C12CD12CD5
:1005BC001C8A1D8A1B861C8649855A8540715527C5
:1005CC004AA35BA32B853C854D815E81241735079F
:1005DC0034F08C899D89892B09F494C09FC0320119
:1005EC00EE89FF898085918505974816590688F70D
:1005FC002CA13DA1412F502FC501B4010E94201305
:10060C000E94B9076A8F7B8F8C8F9D8F0E94B612C8
:10061C006A30710514F069E070E08AA19BA1892B06
:10062C0069F46115710551F4988D973639F4F7FE1C
:10063C0005C03601EFEF6E1A7E0A38C02C893D8951
:10064C00232B99F4F7FE11C03FEF431A530AF10123
:10065C00E60DF71D4EE240838B819C8101978B83C5
:10066C009C83E1E0F0E0EC8BFD8BF101E40DF51DDA
:10067C0036016114710431F020E3219331E0631AE7
:10068C007108F7CFC601840D951D2B813C812C1967
:10069C003D092C014FEF441A540AF101E80FF91FE0
:1006AC00605D6083C90101978B839C832A8D3B8D90
:1006BC004C8D5D8D6CA17DA1812F902F0E942413F8
:1006CC00A50194010E94AF124B015C01B7FAB094E2
:1006DC00B7F8B09420E030E040E251E46CA17DA189
:1006EC00812F902F0E9420136CA37DA3182F092F0C
:1006FC0091E0E91AF108EB85FC853196EB87FC87D4
:10070C00630160CFF985F4FF09C0F101E40DF51D1B
:10071C008EE2808392012F5F3F4F2901A101440D8E
:10072C00551D4D835E83FA011082FF85F53609F065
:10073C0063C0E8A1F9A1E20DF31D31971082298164
:10074C003A8137FF08C031952195310929833A83C5
:10075C0001E010E002C000E010E0E8A1F9A131973F
:10076C00E20DF31D22E030E08AE0E82EF12CCF01FF
:10077C008219930949815A81452B91F089819A817B
:10078C00B7010E947E11805D829369837A83215028
:10079C0031094B815C81415051094B835C83E7CF1C
:1007AC00121613065CF3FC013197E20DF31D012BBD
:1007BC0011F42BE201C02DE220830297B101680FE6
:1007CC00791F598D252F550F330B215431092A319F
:1007DC00310510F025E601C025E4FB0120832B81B7
:1007EC003C81225031092B833C834816590624F452
:1007FC008D819E810E948312398531FF29C030FD85
:10080C0027C04B815C811416150614F5C1010E949A
:10081C00E811820D931D9C012219330948895989CD
:10082C00241735074CF0FC012081EB81FC81E80F8B
:10083C00F91F20830197EFCF4B815C8160E370E05F
:10084C0088899989820D931D0E9469121A8A1B8AC4
:10085C00C1010E94E81109851A852A893B89AC01DE
:10086C00B1018E8D9F8D0E94CD0DA596E2E10C9469
:10087C003C11598553FFB7CC80E2A8CCF5E6FF8735
:08088C00DCCD36E63F87D9CD33
:10089400AEE0B0E0E0E5F4E00C940E114C016B0125
:1008A40019821A828FEF9FEF8B839C831D821E8295
:1008B4004F83588729873A87A12CB12CD6016D9094
:1008C4007C90F301EA0DFB1D808181110FC0D601DC
:1008D400ED93FC938081853209F0D3C13F01BFEFD2
:1008E4006B1A7B0AF6016082718219C0853279F332
:1008F400B401082E000C990B0E94C10B4FEFA41AEF
:10090400B40ADCCF8C32ACF08D32F9F489819A814F
:10091400816089839A833196D601ED93FC93D60145
:10092400ED91FC9180818B3269F789819A81846091
:10093400F0CF803221F489819A818860EACF8332B2
:1009440051F489819A818061E4CF803321F48981D3
:100954009A818260DECFB701C6010E94250F8D8384
:100964009E8397FF0BC029813A81B1E02B2729830D
:100974003A839195819591098D839E8389819A818A
:1009840080FF03C08D7F89839A83D601ED91FC910A
:10099400119780818E3249F43196ED93FC93B7011F
:1009A400C6010E94250F8B839C83C6010E945B10A5
:1009B400582ED601ED91FC918081082E000C990BE4
:1009C4000E948B12893609F443C084F4833609F4F7
:1009D40002C134F4853209F427C18136E1F030C113
:1009E4008436B1F188360CF4D9C02AC1803709F4B1
:1009F4009AC03CF48E3609F4BCC08F3609F461C049
:100A04001FC1853709F440C0883709F476C083379D
:100A140009F016C1F3C0652D70E0A701CE010B9655
:100A24000E947B10892B09F426C1D601ED91FC911B
:100A34001197CF0101968D939C932081AE01455F60
:100A44005F4FBE016F5F7F4FC4010E94000010C161
:100A5400652D70E0970141E050E0CE010B960E94B5
:100A6400E709892B09F407C1F60180819181019678
:100A740080839183AE01455F5F4FBE016F5F7F4FFF
:100A8400C4010E942C08F4C0652D70E0970140E079
:100A940050E0CE010B960E94E709892B09F4EBC0C4
:100AA400D6018D919C91119701968D939C93AE01E3
:100AB400455F5F4FBE016F5F7F4FC4010E949D0C75
:100AC400D7C0652D70E0970140E050E0CE010B9651
:100AD4000E94E709892B09F4CEC0F6018081918137
:100AE400019680839183AE01455F5F4FBE016F5FC6
:100AF4007F4FC4010E941B0BBBC0652D70E09701A2
:100B040040E050E0CE010B960E94E709892B09F4DE
:100B1400B2C0D601ED91FC911197CF0101968D934E
:100B24009C9320811CC0970140E050E060EF70E08E
:100B3400CE010B960E94E709892B09F49CC0F601AB
:100B4400808191810196808391838B859C85892BFB
:100B540029F420E030E04DE850E684C028E7AE01F7
:100B6400455F5F4FBE016F5F7F4FC4010E9448061F
:100B74007FC0A501400F511F652D70E09701CE0184
:100B84000B960E940000892B09F475C0D6018D9143
:100B94009C91119701968D939C9373C0652D70E081
:100BA400A701CE010B960E947B10892B09F463C028
:100BB400D601ED91FC911197CF0101968D939C93F1
:100BC4002081AE01455F5F4FBE016F5F7F4FC4015F
:100BD4000E94B6004DC0B0E85B124DC0F6018081A2
:100BE4009181019680839183D701ED91FC911197B6
:100BF400CF0102968D939C93808120C0B0E85B1254
:100C04003AC0F60180819181019680839183D70156
:100C1400ED91FC911197CF0102968D939C934081A5
:100C2400518120E030E01EC0B0E85B1224C0F60120
:100C3400208131812F5F3F4F208331838B870DC00B
:100C440085E28B87D6016D927C9219821A821D826D
:100C54001E828FEF9FEF8B839C8321E030E0AE01F7
:100C6400455F5F4FBE016F5F7F4FC4010E947F0FDE
:100C74008A0D9B1D07C0F6018081918101968083B6
:0C0C84009183C5012E96EFE00C943F1107
:100C9000AFE0B0E0EEE4F6E00C940B111C016B0148
:100CA00049835A832B83FB018281938184809580C1
:100CB00000811181A680B78097FD02C00D7F02C020
:100CC00081E090E0E981FA81408051806280738008
:100CD0009801207133272C833D83740104FF08C0E1
:100CE000411451046104710419F032E0E31AF1086F
:100CF000F801E870FF27EE83FF8303FF03C0F1E0F4
:100D0000EF1AF108F6010084F185E02D3197EE87A6
:100D1000FF87EA0DFB1D10829C012E193F092887D1
:100D20003987C801827099278A879B87EB818E2F2C
:100D3000EE0F990B9C01215431092C873D872E859C
:100D40003F852230310530F48C819D81892B09F05B
:100D500042C05CC0411451046104710461F18E858C
:100D60009F8501978E879F87C2018F7099278A3050
:100D7000910514F4C09602C0895A9F4FEC85FD85F9
:100D80007A9748F49C012062215631092A313105B5
:100D900010F40E947212EE85FF85EA0DFB1D808320
:100DA000F1E0EF1AF10884E0769467945794479441
:100DB0008A95D1F7C4CF888599858E0D9F1D181609
:100DC00019066CF21E141F040CF0BECFEA85FB85D9
:100DD000EF2B29F6B9CFE981FA8180819181A28137
:100DE000B381892B8A2B8B2B89F0EE85FF85EA0D49
:100DF000FB1D31972B8120838E859F8502978E87DF
:100E00009F87FC01EA0DFB1D80E38083EE81FF815B
:100E1000EF2B59F02E853F85215031092E873F87D2
:100E2000F901EA0DFB1D80E28083F60140855185C2
:100E3000415051092E853F85421B530BB9016A0D64
:100E40007B1D9401C1010E94CD0D9C01F1018081A7
:100E5000918190FF06C0F6018281938182179307EA
:0C0E60000CF4C9012F96E2E10C943C1147
:100E6C001F920F920FB60F9211242F933F934F9313
:100E7C005F936F937F938F939F93AF93BF93CF9316
:100E8C00DF93EF93FF93809105098C7109F447C0B0
:100E9C008091050982FD04C08091050983FF0AC079
:100EAC00E8E7F0E686E0858783E084878CE0809332
:100EBC0005091DC080910709882359F08091050907
:100ECC0084FF07C0E8E7F0E685E0858781E084874A
:100EDC000EC080910809882351F08091050984FF88
:100EEC0006C0E8E7F0E685E0858782E08487C8E7FE
:100EFC00D0E6ED85F0E0EE0FFF1FE65AFE470190BD
:100F0C00F081E02D09958D878C858823C9F0E091BF
:100F1C009660F0919760309799F0099511C0809187
:100F2C000509807E69F0C8E7D0E6ED85F0E0EE0FAC
:100F3C00FF1FE65AFE470190F081E02D09958D8741
:100F4C00FF91EF91DF91CF91BF91AF919F918F91D5
:100F5C007F916F915F914F913F912F910F900FBEA9
:060F6C000F901F90189584
:100F72008F929F92AF92BF92CF92DF92EF92FF92A7
:100F82000F931F938B019C0157E136952795179577
:100F920007955A95D1F71127A8014F5751094731A3
:100FA20051050CF045C057FD2DC00FEF1FEF2FE785
:100FB20030E004C035952795179507954A95D2F7E5
:100FC2004801590186229722A822B92289288A2813
:100FD2008B2871F197FF07C0DC01CB01800F911FB5
:100FE200A21FB31F02C0DC01CB0100951095209512
:100FF200309580239123A223B323482F392F2A2F00
:101002005B2F1AC097FF0FC08B019C01000F111FAD
:10101200221F331F012B022B032B51F040E030E043
:1010220020E85FEB09C040E030E020E050E004C07F
:10103200462F372F282F592F642F732F822F952F4A
:101042001F910F91FF90EF90DF90CF90BF90AF90E4
:061052009F908F900895AD
:10105800A2E0B0E0E2E3F8E00C940B113C016B0174
:10106800FB0122813381A480B580808191818983AD
:101078009A8386809780FA0120803180428053804D
:10108800B201A10157FE07C044275527BA014219EA
:1010980053096409750937FD03C08D7F89839A83D5
:1010A800950157FC05C0898182FD02C083FF02C0FB
:1010B80021503109CE0101967C010AE010E0C601F9
:1010C8000E94B60A57FC03C0298122FF0AC0019773
:1010D800F401E80FF91F57FC02C02BE209C02DE20A
:1010E80007C023FF06C00197F401E80FF91F20E2AB
:1010F800208309811A81F6014085518541505109A3
:10110800481B590BB401680F791F9501C3010E9450
:10111800CD0D9C01F3018081918190FF06C0F601FD
:1011280082819381821793070CF4C9012296E2E128
:041138000C943C11C6
:10113C00CF93DF9380E094E0FC011482C0E4D4E010
:10114C001C82A0E6B4E020E114962C93149740EA9C
:10115C0054E0FA011482FC01108218822C93FA01DB
:10116C001082FC01108A118A128A138A148A158A39
:10117C00168A178A188A198A1A8A1B8A1C8A1D8A47
:10118C001E8A1F8A50961C92509751961C9251970A
:10119C0052961C92529753961C92539754961C92AB
:1011AC00549755961C92559756961C92569757964F
:1011BC001C92FA01108A118A128A138A148A158ACF
:1011CC00168A178AE0EEF5E01182108215821782DA
:1011DC0010861186168283E0828388E393E18093E4
:1011EC009E6090939F6089E393E180939C609093C1
:1011FC009D608AE393E180939A6090939B608BE36C
:10120C0093E18093986090939960DF91CF910895CA
:10121C0010C00E94C41258F00E94BD1240F029F474
:10122C005F3F29F00C94FD1251110C94CC120C94CC
:10123C0031130E94171068F39923B1F3552391F3DE
:10124C00951B550BBB27AA2762177307840738F029
:10125C009F5F5F4F220F331F441FAA1FA9F335D086
:10126C000E2E3AF0E0E832D091505040E695001C3A
:10127C00CAF72BD0FE2F29D0660F771F881FBB1FF4
:10128C00261737074807AB07B0E809F0BB0B802DD2
:10129C00BF01FF2793585F4F3AF09E3F510578F0FE
:1012AC000C94FD120C94CC125F3FE4F3983ED4F3F3
:1012BC00869577956795B795F7959F5FC9F7880FD2
:1012CC00911D9695879597F90895E1E0660F771F24
:1012DC00881FBB1F621773078407BA0720F0621BB5
:0E12EC00730B840BBA0BEE1F88F7E095089584
:1012FA000FC00E94BD1238F00E94C41220F095233C
:10130A0011F00C94FD120C94311311240C94CC128C
:10131A000E94171070F3959FC1F3950F50E0551F67
:10132A00629FF001729FBB27F00DB11D639FAA2730
:10133A00F00DB11DAA1F649F6627B00DA11D661F7F
:10134A00829F2227B00DA11D621F739FB00DA11DA0
:10135A00621F839FA00D611D221F749F3327A00D5A
:10136A00611D231F849F600D211D822F762F6A2FF6
:10137A0011249F5750409AF0F1F088234AF0EE0F5B
:10138A00FF1FBB1F661F771F881F91505040A9F788
:10139A009E3F510580F00C94FD120C94CC125F3FD5
:1013AA00E4F3983ED4F3869577956795B795F795C4
:1013BA00E7959F5FC1F7FE2B880F911D969587953C
:0413CA0097F90895F2
:1013CE00CF93DF93DC01F90168387105F1F05CF41D
:1013DE006138710561F164387105A1F160387105EC
:1013EE0009F051C02FC0603C710509F441C0603F47
:1013FE007105F1F1603A710509F045C0C081D181E6
:10140E00CE0102968083918325C0C081D181CE0109
:10141E00029680839183452B39F04881042E000C6F
:10142E00550B660B770B1CC0488150E029C0C0815C
:10143E00D181CE01049680839183488159816A813E
:10144E007B810EC0C081D181CE01029680839183B3
:10145E00452BA1F048815981052E000C660B770BA8
:10146E004D935D936D937C93139781E090E00DC047
:10147E00C081D181CE0102968083918348815981AA
:10148E0060E070E0EDCF80E090E0DF91CF910895C5
:10149E0011C00E94BD1238F00E94C41220F039F41F
:1014AE009F3F19F426F40C9431130EF4E095E7FBEC
:1014BE000C94FD12E92F0E94171058F3BA17620709
:1014CE0073078407950720F079F4A6F50C94CB12D8
:1014DE000EF4E0950B2EBA2FA02D0B01B901900141
:1014EE000C01CA01A0011124FF27591B99F0593F85
:1014FE0050F4503E68F11A16F040A22F232F342FCD
:10150E004427585FF3CF469537952795A795F0401A
:10151E005395C9F77EF41F16BA0B620B730B840B2F
:10152E00BAF09150A1F0FF0FBB1F661F771F881FE7
:10153E00C2F70EC0BA0F621F731F841F48F487953F
:10154E0077956795B795F7959E3F08F0B0CF939531
:0E155E00880F08F09927EE0F9795879508954E
:10156C00A0E0B0E0ECEBFAE00C940D11DC012801EA
:10157C001696AD90BC901797F701808191811296C9
:10158C00ED91FC9113971896CD91DC9119972197B9
:10159C00F7FF02C0E1E0F0E0CA0DDB1D1882690123
:1015AC00A1E0B0E08F01021B130B4C01F2E08F2283
:1015BC009924052C000C66087708CE018A199B0922
:1015CC00CA15DB0519F1411551056105710589F045
:1015DC00CB01BA01A30192010E943910CA01A62FB6
:1015EC00B72F605D6A9341E0C41AD108A901BC0110
:1015FC00E4CF98012C0D3D1D121613064CF31C1450
:10160C001D0434F48114910419F702C080E090E0B9
:10161C00AB2B31F4F701208131812F7E2083318374
:0A162C00CDB7DEB7E0E10C943E11EB
:10163600A2E0B0E0E1E2FBE00C940F114C016B017B
:10164600FB01228133816480758080819181898349
:101656009A83A680B78037FD03C08D7F89839A83DE
:10166600FA014081518162817381CE0101967C012C
:1016760008E010E09301C6010E94B60A298124FF02
:1016860006C00197F501E80FF91F20E320832981A1
:1016960023FF06C00197F501E80FF91F20E220831A
:1016A60009811A81F6014085518541505109481B2F
:1016B600590BB501680F791F9301C4010E94CD0D26
:1016C6009C01F4018081918190FF06C0F601828120
:1016D6009381821793070CF4C9012296EEE00C94CD
:0216E6004011B1
:1016E800CF93DF938091816090918260019731F46C
:1016F800E0E0F9E084818460848305C0E0E0F9E0FB
:1017080084818B7F8483E8E7F0E681859285019761
:1017180081879287892BB1F0DF01C781D085E0E00E
:10172800F9E08085888317968D919C91189701968A
:1017380017968D939C93189784818C7F82608483FD
:1017480084E018C0A8E7B0E61796CD91DC91189709
:10175800E0E0F9E08085888317968D919C91189731
:10176800019617968D939C9318978481846084833F
:0A1778000E949B10DF91CF910895AD
:101782000F931F93CF93DF93DB01109719F48FEF21
:101792009FEF3DC02D913C91119730FF25C01696C9
:1017A2004D915C91179714962D913C911597421784
:1017B200530778F41296ED91FC9113978083129659
:1017C2002D913C9113972F5F3F4F12962D933C938F
:1017D200139716962D913C9117972F5F3F4F1696B0
:1017E2002D933C93179713C01C96ED91FC911D9776
:1017F200309769F2EB01092F182F0995892B39F6D9
:101802008E819F8101968E839F83812F902FDF91FE
:08181200CF911F910F91089581
:10181A0040E068ED80E690E00E941C1340E068ED2D
:10182A0081E690E00E941C1340E068ED88E790E0B2
:10183A000E941C134CE068ED88E690E00E941C139D
:10184A0040E068ED89E690E00E941C1340E068EDF4
:10185A0080E790E00E941C1340E068ED8CE790E07E
:10186A000E941C1340E068ED82E690E00E941C137F
:10187A0040E068ED83E690E00E941C1340E068EDCA
:10188A0084E690E00E941C1340E068ED80E890E056
:10189A000E941C13E0E6F0E0858181FFFDCF0895E8
:1018AA00AF92BF92CF92DF92EF92FF920F931F9364
:1018BA00CF93DF937C015C0100E010E00F2EF4E18E
:1018CA00CF2EF1E8DF2EF02D1EC08091AA609091F4
:1018DA00AB6001968093AA609093AB6005C0D60175
:1018EA001A96CD91DC911B97FE010995882369F31D
:1018FA00D6011696ED91FC911797D5018D915D0150
:10190A0009950F5F1F4FF70101900020E9F7319702
:10191A00EE19FF090E171F0714F3DF91CF911F91DC
:10192A000F91FF90EF90DF90CF90BF90AF90089506
:10193A00A2E0B0E0E3EAFCE00C940F115C016B0159
:10194A00FB01228133818480958080819181898302
:10195A009A836680778037FD03C08D7F89839A8357
:10196A00FA014081518162817381CE0101967C0125
:10197A000AE010E09401C6010E94B60A09811A81A0
:10198A00F6014085518541505109481B590BB30155
:10199A00680F791F9401C5010E94CD0D9C01F501C4
:1019AA008081918190FF06C0F6018281938182171E
:0E19BA0093070CF4C9012296EEE00C94401144
:1019C800A2E8B0E0EAEEFCE00C9411115C014A01D7
:1019D800CF57DF4F68837983C158D040C12CD12CB1
:1019E800CF57DF4FE881F981C158D04080818823E3
:1019F800E9F07401860120E830E0AE014F5F5F4FE7
:101A0800BE016F577F4FC5010E944A048C0D9D1D72
:101A18008C159D054CF48FE490E0809300609093C2
:101A280001608FEF9FEF03C06C01DACFC601CE577C
:081A3800DF4FECE00C944211B9
:101A4000ECEAF0E610828FEF81830E94D9118111B8
:101A5000FCCF42E050E06CEA70E684E290E00E9445
:101A6000F70EECEAF0E686E080838FEF81830E9438
:101A7000D9118111FCCF42E050E06CEA70E684E2BB
:101A800090E00E94F70EECEAF0E6108211820E94CC
:101A9000D9118111FCCF42E050E06CEA70E685E29A
:101AA00090E00E94F70E89E08093AC6080E00E9495
:041AB000C9110895BB
:101AB400A0E1B0E0E0E6FDE00C941711FB01BA01EF
:101AC400AE014F5F5F4F7A0140E1D7011D924A9505
:101AD400E9F742E051E049835A838B839C83F7FF03
:101AE40009C08FE490E080930060909301608FEFD1
:101AF4009FEF14C0A9018C013197ED83FE83C701C8
:101B04000E9424114F8158852D813E81421753072D
:101B140008F49A01F801E20FF31F10826096E6E0E0
:041B24000C944811C4
:101B28001092A8601092A9608091010882FF0CC0F1
:101B3800E8EAF0E6808182608083E091A660F09117
:101B4800A760309709F009958091010881FF0CC0C2
:101B5800E8EAF0E6808181608083E091A260F091FC
:101B6800A360309709F009958091010886FF0CC0A1
:101B7800E8EAF0E6808184608083E091A460F091D7
:101B8800A560309709F009958091A8609091A960A7
:021B98000895AE
:101B9A00A0E0B0E0E3EDFDE00C9411116C015B01F3
:101BAA007A01E901480181E08822992400FD03C0F5
:101BBA004217530750F0A701B501C6010E94B91098
:101BCA00EC16FD0610F0C70117C08E010E191F0989
:101BDA000115110541F0B60180E290E00E94C10BA7
:101BEA0001501109F5CF8114910429F4A701B50117
:101BFA00C6010E94B910CE01CDB7DEB7ECE00C9455
:021C0A00421185
:101C0C001F920F920FB60F9211242F933F934F9365
:101C1C005F936F937F938F939F93AF93BF93EF9348
:101C2C00FF931B9B05C0E0919A60F0919B60099516
:101C3C001A9B05C0E0919860F091996009958FEF1F
:101C4C0083B9FF91EF91BF91AF919F918F917F914C
:101C5C006F915F914F913F912F910F900FBE0F900D
:041C6C001F90189518
:101C70001F920F920FB60F9211242F933F934F9301
:101C80005F936F937F938F939F93AF93BF93EF93E4
:101C9000FF937D9B05C0E0919E60F0919F60099548
:101CA0007C9B05C0E0919C60F0919D6009958FEF51
:101CB0008FB9FF91EF91BF91AF919F918F917F91DC
:101CC0006F915F914F913F912F910F900FBE0F90A9
:041CD0001F901895B4
:101CD4001F920F920FB60F9211242F933F934F939D
:101CE4005F936F937F938F939F93AF93BF93EF9380
:101CF400FF938091060B80FF0AC0E091A060F091F1
:101D0400A160309709F0099581E08093060BFF915B
:101D1400EF91BF91AF919F918F917F916F915F915F
:101D24004F913F912F910F900FBE0F901F901895D8
:101D34000E941F1088F09F5798F0B92F9927B75128
:101D4400B0F0E1F0660F771F881F991F1AF0BA955B
:101D5400C9F714C0B13091F00E94CB12B1E00895DC
:101D64000C94CB12672F782F8827B85F39F0B93FCE
:101D7400CCF3869577956795B395D9F73EF490950E
:0E1D84008095709561957F4F8F4F9F4F08950A
:101D9200CF92DF92EF92FF920F931F93CF93DF9335
:101DA2006C017B018A010E94D911811115C0C8E71B
:101DB200D0E681E08883C982DA821B86EF82F886C8
:101DC20009871A871B821C821D821E821C860E9422
:101DD2004D128D8781E001C080E0DF91CF911F918C
:0C1DE2000F91FF90EF90DF90CF900895DC
:101DEE00CF92DF92EF92FF920F931F93CF93DF93D9
:101DFE006C017B018A010E94D911811115C0C8E7BF
:101E0E00D0E681E08883C982DA821B86EB82FC826F
:101E1E000D831E831F82188619861A861C860E94C1
:101E2E0057128D8781E001C080E0DF91CF911F9125
:0C1E3E000F91FF90EF90DF90CF9008957F
:101E4A00DC01ED91FC91119780818A3221F080E0CA
:101E5A0090E03AE00EC03196ED93FC93DB01ED91F0
:101E6A00FC911197CF0102968D939C938081918169
:101E7A000895ED91FC911197208120532A3068F43E
:101E8A00389FA001399F500D1124CA01820F911D5C
:0C1E9A003196ED93FC931197ECCF089566
:101EA600CF93DF9300D0CDB7DEB789E089830E9458
:101EB600D9118111FCCF41E050E0BE016F5F7F4F29
:101EC60084E290E00E94F70E0E94D9118111FCCFA6
:101ED60041E050E0BE016E5F7F4F84E290E00E94D9
:101EE600C90E9091AE608A8198138093AE600F9070
:081EF6000F90DF91CF910895D8
:101EFE00A0E0B0E0E5E8FFE00C9413117C01FB01DB
:101F0E00EA01C901A280B380C480D580008111810D
:101F1E00209711F4C6E8D0E6009719F4CE010E947E
:101F2E00E811B7FC04C0A816B90608F4C50196015D
:101F3E00AC01BE01C7010E94CD0DCDB7DEB7EAE000
:041F4E000C9444119A
:101F5200E0E0F8E08AE890E080879187158280ECE3
:101F6200868383E0878313861486168615868DE31F
:101F720093E18093A6609093A7608EE393E18093B0
:101F8200A4609093A5608FE393E18093A260909305
:0C1F9200A3601092A8601092A96008954E
:101F9E0080917D6090917E60892B99F0E8E7F0E664
:101FAE0085819681019785839683A381B4818C91D7
:101FBE00809308098381948101968383948383E0BF
:101FCE00089580918360882321F01092836081E0D0
:081FDE0008950E949B10089574
:101FE600990F0008550FAA0BE0E8FEEF1616170624
:101FF600E807F907C0F012161306E407F50798F08C
:10200600621B730B840B950B39F40A2661F0232BA4
:10201600242B252B21F408950A2609F4A140A69520
:082026008FEF811D811D08955B
:10202E0057FD9058440F551F59F05F3F71F047957B
:10203E00880F97FB991F61F09F3F79F08795089560
:10204E00121613061406551FF2CF4695F1DF08C07F
:10205E00161617061806991FF1CF8695710561059C
:04206E000894089535
:10207200A1E21A2EAA1BBB1BFD010DC0AA1FBB1F8A
:10208200EE1FFF1FA217B307E407F50720F0A21BFC
:10209200B30BE40BF50B661F771F881F991F1A9469
:1020A20069F760957095809590959B01AC01BD0193
:0420B200CF010895BD
:1020B600CF93DF93EC0190E0E92FF0E0EE0FFF1FE6
:1020C600EE5AFF498081811102C081810EC0A8812C
:1020D600B9812C91821305C091811196A883B98389
:1020E60001C09F5F9B3040F3892FDF91CF91089508
:1020F600FA0160387105CCF0623871051CF063385E
:10210600710599F4A081B1819D012C5F3F4F208319
:1021160031834D915D916D917C91FC01408351839A
:102126006283738381E090E0089580E090E00895F3
:10213600A0E0B9E014968C911497836014968C9362
:102146001497E8E7F0E610828FEF90E081839283A0
:102156001382148217821086158680EC15968C934E
:0C216600159781E015968C9380E0089599
:10217200A0E0B0E0EFEBF0E10C9415116C01EB0183
:102182008A017B01E40EF51ECE15DF0541F089912F
:10219200B601082E000C990B0E94C10BF5CFC801A5
:0A21A200CDB7DEB7E8E00C9446115B
:1021AC000E94200D04E411E8C2E0D0E60E94530F17
:1021BC000E9460129F938F931F930F93DF93CF9383
:1021CC000E94A611CE010E94550C0F900F900F90FB
:0821DC000F900F900F90EACF65
:1021E400E0E0FBE080818E7F808311821086148280
:1021F40080EA9FE0848795871286138616828CE393
:1022040093E18093A0609093A16081E085838083B3
:0222140008952B
:102216002F923F924F925F926F927F928F929F92F0
:10222600AF92BF92CF92DF92EF92FF920F931F93DE
:10223600CF93DF93CDB7DEB7CA1BDB0BCDBFDEBFB7
:022246000994F9
:10224800A2E0B0E0EAE2F1E10C9419118C014983B3
:102258005A83AE014F5F5F4F0E94E40CF801208162
:1022680024FF02C08FEF9FEF2296E4E00C944A11FE
:102278002A88398848885F846E847D848C849B840E
:10228800AA84B984C884DF80EE80FD800C811B811C
:10229800AA81B981CE0FD11DCDBFDEBFED01089552
:1022A800E0E0F9E083818E7F8383108212828EE0E2
:1022B8008683178210861582148281EC838381E0DD
:0C22C80085831092966010929760089534
:1022D400882349F0E0E0F8E0868184608683848185
:1022E400816084830895E0E0F8E08681897F8683B5
:0822F40084818D7F848308952D
:1022FC0097FB072E16F4009407D077FD09D00E94A7
:10230C00921107FC05D03EF4909581959F4F08954E
:08231C00709561957F4F089553
:10232400AA1BBB1B51E107C0AA1FBB1FA617B707F7
:1023340010F0A61BB70B881F991F5A95A9F7809513
:082344009095BC01CD01089544
:10234C00A0E0B0E0ECEAF1E10C941B11AE01475FA8
:10235C005F4F6F8178858D819E810E94D212E2E061
:04236C000C944C1170
:10237000092E0394000C11F4882352F0BB0F40F493
:10238000BF2B11F460FF04C06F5F7F4F8F4F9F4FD3
:022390000895AE
:1023920080958093AD600E94D9118111FCCF42E0FB
:1023A20050E06CEA70E685E290E00E94F70E089534
:1023B20080917860811108C090910509937081E045
:0E23C200913019F480E001C081E0817008952F
:1023D000FC01AF014F5F5F4F2081222311F0FA0112
:0C23E000F8CF9F01281B390BC90108959C
:1023EC0040E068ED80E191E00E941C13E0E1F1E037
:0A23FC0012821382789480E00895A5
:102406000E940D0C0E949E080E9454110E94F21018
:0A2416000E94A90F0E94F61108951C
:102420000E94D9118111FCCF43E050E063E970E6CE
:0A24300081E590E00E94F70E089588
:10243A0082E08093610483E08093E705E0E0FAE0BC
:0A244A0087E2818385E08083089516
:10245400E0E0F9E083818E7F8383838181608383DD
:082464001092786080E00895F9
:10246C00E0E0F8E01086118615821682178213863A
:08247C001486168615860895EA
:10248400EC010E9441130E944013CE010E944213AA
:06249400CE010E94361388
:10249A008091796090917A60880F816080930709B2
:0424AA0084E008952D
:1024AE008091796090917A60880F8093070983E01C
:0224BE0008957F
:1024C0008091AE6082958F7091E08927817090E055
:0224D00008956D
:1024D200FC01480F591FE417F50711F06193FBCF78
:0224E20008955B
:1024E4009C01215631092A31310510F48F75992741
:0224F400089549
:1024F6000E9403120E941D120E9410120E94D61002
:10250600FC01DB012D91BD0121932111FACF089524
:102516009C01215431092A31310508F4806208955D
:0E2526001092786081E08093050988E00895A6
:0E253400009721F08093A6609093A760089511
:0E254200009721F08093A4609093A560089507
:0E255000009721F08093A2609093A3600895FD
:0E255E005058BB27AA270E944F0A0C94B811B0
:0E256C000E949A0E6894B1110C94CC1208953E
:0E257A0000240A94161617061806090608957E
:0E25880000240A941216130614060506089580
:0E259600E894BB2766277727CB0197F90895B5
:0E25A4009A01AB016FEF7FE70E945A0D089578
:0C25B20080EC809305090E942A12089515
:0C25BE00E0E0F8E08681806486830895E8
:0C25CA00E0E0F8E086818F7B86830895B6
:0C25D60080910408881F8827881F089542
:0C25E2008091040885FB882780F908958B
:0C25EE008091040886FB882780F908957E
:0C25FA0097F99F6780E870E060E00895AA
:0A2606008F938FEF8BB98F91189519
:0A2610008F938FEF87BB8F91189511
:0A261A0080910408869581700895F0
:0A2624000E94F30F08F481E008950E
:0A262E000E94F30F08F48FEF0895E7
:08263800FC0164BF408308951A
:082640000E940E090C94B81170
:082648000E947D090C94B811F9
:062650000E949B1008959A
:06265600809100080895C8
:06265C00809302080895BE
:062662009FEF80EC0895DB
:042668000C940000CE
:04266C000E94880040
:022670000895CB
:022672000895C9
:022674000895C7
:022676000895C5
:022678000895C3
:02267A000895C1
:02267C000895BF
:02267E000895BD
:022680000895BB
:022682000895B9
:022684000895B7
:1026860068076C094C836A9074A07AC000806888D9
:0626960000846C8200814B
:10269C00494E4600696E66004E414E006E616E00FA
:0726AC00286E756C6C29001B
:0626B300286E696C29008D
:0326B900030A0809
:02000004008278
:090000000000000000D00800001F
:00000001FF
