:100000000C9469000C942A0E0C942A0E0C942A0E5F
:100010000C942A0E0C942A0E0C942A0E0C942A0E80
:100020000C940A0A0C942A0E0C942A0E0C942A0E94
:100030000C942A0E0C942A0E0C946E0A0C942A0E20
:100040000C942A0E0C942A0E0C942A0E0C94CE03B7
:100050000C942A0E0C942A0E0C942A0E0C942A0E40
:100060000C943C0A0C942A0E0C942A0E0C942A0E22
:100070000C942A0E0C94FA0D0C942A0E0C942A0E51
:100080000C942A0E0C942A0E0C94FF0D0C942A0E3C
:10009000600060528060526068001C726068607628
:1000A0008060766083001C886083608780608760E2
:1000B0008A001C95608A60A58060A560A7001C98D6
:1000C00060A760AB8060AB60AC001C9A60AC60AEB7
:1000D0008000809101108F7C8060806898ED94BFD3
:1000E0008093011011241FBECFEFCDBFDFE7DEBF2D
:1000F000E0E9F0E040E017C0B591A5913591259178
:10010000059107FD0CC095918591EF01F92FE82F1E
:1001100005900D92A217B307D9F7FE0104C01D92F6
:10012000A217B307E1F7E13DF40731F70E9451044C
:080130000C946A0DF894FFCF56
:100138004D504C41422058204C616220340A0D0039
:10014800523A20257509473A20257509423A202553
:1001580075094252543A202575094946523A2025D4
:04016800750A0D0007
:10016C00240B480D240E270EE80DEE0DF40DDC0DBE
:10017C00E20D960C180E00000000000000000000BC
:10018C006109000000000000AE0DB50DBC0D0000B3
:10019C00080CAA0CD00DD60D090EA70DA00D040E3F
:0601AC000E0E130E000010
:1001B200990D750D7F0D4A0B3707210ECA0DB00B35
:0201C2003C0DF2
:1001C400AEE0B0E0E8EEF0E00C94240C4C016B01DE
:1001D40019821A828FEF9FEF8B839C831D821E826C
:1001E4004F83588729873A87A12CB12CD6016D906B
:1001F4007C90F301EA0DFB1D808181110FC0D601B3
:10020400ED93FC938081853209F0D3C13F01BFEFA8
:100214006B1A7B0AF6016082718219C0853279F308
:10022400B401082E000C990B0E9484074FEFA41A06
:10023400B40ADCCF8C32ACF08D32F9F489819A8126
:10024400816089839A833196D601ED93FC93D6011C
:10025400ED91FC9180818B3269F789819A81846068
:10026400F0CF803221F489819A818860EACF833289
:1002740051F489819A818061E4CF803321F48981AA
:100284009A818260DECFB701C6010E94CC0A8D83B9
:100294009E8397FF0BC029813A81B1E02B272983E4
:1002A4003A839195819591098D839E8389819A8161
:1002B40080FF03C08D7F89839A83D601ED91FC91E1
:1002C400119780818E3249F43196ED93FC93B701F6
:1002D400C6010E94CC0A8B839C83C6010E94900BAA
:1002E400582ED601ED91FC918081082E000C990BBB
:1002F4000E94910D893609F443C084F4833609F4CD
:1003040002C134F4853209F427C18136E1F030C1E9
:100314008436B1F188360CF4D9C02AC1803709F487
:100324009AC03CF48E3609F4BCC08F3609F461C01F
:100334001FC1853709F440C0883709F476C0833774
:1003440009F016C1F3C0652D70E0A701CE010B962C
:100354000E940000892B09F426C1D601ED91FC917D
:100364001197CF0101968D939C932081AE01455F37
:100374005F4FBE016F5F7F4FC4010E94000010C138
:10038400652D70E0970141E050E0CE010B960E948C
:10039400B005892B09F407C1F6018081918101968A
:1003A40080839183AE01455F5F4FBE016F5F7F4FD6
:1003B400C4010E94CE04F4C0652D70E0970140E0B2
:1003C40050E0CE010B960E94B005892B09F4EBC0D6
:1003D400D6018D919C91119701968D939C93AE01BA
:1003E400455F5F4FBE016F5F7F4FC4010E9460088D
:1003F400D7C0652D70E0970140E050E0CE010B9628
:100404000E94B005892B09F4CEC0F6018081918148
:10041400019680839183AE01455F5F4FBE016F5F9C
:100424007F4FC4010E94DE06BBC0652D70E09701BA
:1004340040E050E0CE010B960E94B005892B09F4F0
:10044400B2C0D601ED91FC911197CF0101968D9325
:100454009C9320811CC0970140E050E060EF70E065
:10046400CE010B960E94B005892B09F49CC0F601BD
:10047400808191810196808391838B859C85892BD2
:1004840029F420E030E04DE750E684C028E7AE01CF
:10049400455F5F4FBE016F5F7F4FC4010E94E00262
:1004A4007FC0A501400F511F652D70E09701CE015B
:1004B4000B960E940000892B09F475C0D6018D911A
:1004C4009C91119701968D939C9373C0652D70E058
:1004D400A701CE010B960E940000892B09F463C08A
:1004E400D601ED91FC911197CF0101968D939C93C8
:1004F4002081AE01455F5F4FBE016F5F7F4FC40136
:100504000E9400004DC0B0E85B124DC0F60180812E
:100514009181019680839183D701ED91FC9111978C
:10052400CF0102968D939C93808120C0B0E85B122A
:100534003AC0F60180819181019680839183D7012D
:10054400ED91FC911197CF0102968D939C9340817C
:10055400518120E030E01EC0B0E85B1224C0F601F7
:10056400208131812F5F3F4F208331838B870DC0E2
:1005740085E28B87D6016D927C9219821A821D8244
:100584001E828FEF9FEF8B839C8321E030E0AE01CE
:10059400455F5F4FBE016F5F7F4FC4010E94FA0A3F
:1005A4008A0D9B1D07C0F60180819181019680838D
:0C05B4009183C5012E96EFE00C94550CCD
:1005C000AFE0B0E0E6EEF2E00C94210C1C016B0110
:1005D00049835A832B83FB01828193818480958098
:1005E00000811181A680B78097FD02C00D7F02C0F7
:1005F00081E090E0E981FA814080518062807380DF
:100600009801207133272C833D83740104FF08C0B7
:10061000411451046104710419F032E0E31AF10845
:10062000F801E870FF27EE83FF8303FF03C0F1E0CA
:10063000EF1AF108F6010084F185E02D3197EE877D
:10064000FF87EA0DFB1D10829C012E193F092887A8
:100650003987C801827099278A879B87EB818E2F03
:10066000EE0F990B9C01215431092C873D872E8573
:100670003F852230310530F48C819D81892B09F032
:1006800042C05CC0411451046104710461F18E8563
:100690009F8501978E879F87C2018F7099278A3027
:1006A000910514F4C09602C0895A9F4FEC85FD85D0
:1006B0007A9748F49C012062215631092A3131058C
:1006C00010F40E94880DEE85FF85EA0DFB1D8083E6
:1006D000F1E0EF1AF10884E0769467945794479418
:1006E0008A95D1F7C4CF888599858E0D9F1D1816E0
:1006F00019066CF21E141F040CF0BECFEA85FB85B0
:10070000EF2B29F6B9CFE981FA8180819181A2810D
:10071000B381892B8A2B8B2B89F0EE85FF85EA0D1F
:10072000FB1D31972B8120838E859F8502978E87B5
:100730009F87FC01EA0DFB1D80E38083EE81FF8132
:10074000EF2B59F02E853F85215031092E873F87A9
:10075000F901EA0DFB1D80E28083F6014085518599
:10076000415051092E853F85421B530BB9016A0D3B
:100770007B1D9401C1010E949A099C01F1018081B5
:10078000918190FF06C0F6018281938182179307C1
:0C0790000CF4C9012F96E2E10C94520C0D
:10079C001F920F920FB60F9211242F933F934F93EA
:1007AC005F936F937F938F939F93AF93BF93CF93ED
:1007BC00DF93EF93FF93809105098C7109F447C087
:1007CC008091050982FD04C08091050983FF0AC050
:1007DC00E8E6F0E686E0858783E084878CE080930A
:1007EC0005091DC080910709882359F080910509DE
:1007FC0084FF07C0E8E6F0E685E0858781E0848722
:10080C000EC080910809882351F08091050984FF5E
:10081C0006C0E8E6F0E685E0858782E08487C8E6D6
:10082C00D0E6ED85F0E0EE0FFF1FEE54FE47019091
:10083C00F081E02D09958D878C858823C9F0E09196
:10084C008D60F0918E60309799F0099511C0809170
:10085C000509807E69F0C8E6D0E6ED85F0E0EE0F84
:10086C00FF1FEE54FE470190F081E02D09958D8716
:10087C00FF91EF91DF91CF91BF91AF919F918F91AC
:10088C007F916F915F914F913F912F910F900FBE80
:06089C000F901F9018955B
:1008A200CF93DF93CDB7DEB72A97CDBFDEBF0E94CD
:1008B200080DE091AE81F091AF8180E89CE009954E
:1008C2000E94150D0E94220D0E942F0D88E391E8CF
:1008D2000E9418080E94540D0E945F0D6436710533
:1008E20081059105C8F319821A821B821C821D821E
:1008F2001E821F82188619861A866894DD24D7F80C
:100902000F2EF8E4EF2EF1E8FF2EF02D02E010E6B4
:100912000E94CE0B292F26958536910510F480E092
:1009220001C08D2D222331F090E0869580689F5F73
:100932002913FBCF0E94CE0C0E945F0D6536710514
:100942008105910528F30E94540DCE0101960E9463
:100952007D06CE0107960E94A7088A858F93898516
:100962008F9388858F938F818F938E818F938D81C3
:100972008F938C818F938B818F938A818F938981BF
:100982008F93FF92EF921F930F930E94BC0CC801AA
:0A0992000E941808CDBFDEBFBBCFE6
:10099C00A2E0B0E0E4EDF4E00C94210C3C016B011E
:1009AC00FB0122813381A480B58080819181898370
:1009BC009A8386809780FA01208031804280538010
:1009CC00B201A10157FE07C044275527BA014219AD
:1009DC0053096409750937FD03C08D7F89839A8398
:1009EC00950157FC05C0898182FD02C083FF02C0BE
:1009FC0021503109CE0101967C010AE010E0C601BC
:100A0C000E94180657FC03C0298122FF0AC00197D7
:100A1C00F401E80FF91F57FC02C02BE209C02DE2CC
:100A2C0007C023FF06C00197F401E80FF91F20E26D
:100A3C00208309811A81F601408551854150510965
:100A4C00481B590BB401680F791F9501C3010E9413
:100A5C009A099C01F3018081918190FF06C0F601F7
:100A6C0082819381821793070CF4C9012296E2E1EB
:040A7C000C94520C78
:100A8000CF93DF9380E094E0FC011482C0E4D4E0D3
:100A90001C82A0E6B4E020E114962C93149740EA5F
:100AA00054E0FA011482FC01108218822C93FA019E
:100AB0001082FC01108A118A128A138A148A158AFC
:100AC000168A178A188A198A1A8A1B8A1C8A1D8A0A
:100AD0001E8A1F8A50961C92509751961C925197CD
:100AE00052961C92529753961C92539754961C926E
:100AF000549755961C92559756961C925697579612
:100B00001C92FA01108A118A128A138A148A158A91
:100B1000168A178AE0EEF5E011821082158217829C
:100B200010861186168283E082838EE29EE0809397
:100B30009560909396608FE29EE08093936090938F
:100B4000946080E39EE0809391609093926081E353
:100B50009EE080938F6090939060DF91CF91089595
:100B6000CF93DF93DC01F90168387105F1F05CF493
:100B70006138710561F164387105A1F16038710562
:100B800009F051C02FC0603C710509F441C0603FBD
:100B90007105F1F1603A710509F045C0C081D1815C
:100BA000CE0102968083918325C0C081D181CE0180
:100BB000029680839183452B39F04881042E000CE6
:100BC000550B660B770B1CC0488150E029C0C081D3
:100BD000D181CE01049680839183488159816A81B5
:100BE0007B810EC0C081D181CE010296808391832A
:100BF000452BA1F048815981052E000C660B770B1F
:100C00004D935D936D937C93139781E090E00DC0BD
:100C1000C081D181CE010296808391834881598120
:100C200060E070E0EDCF80E090E0DF91CF9108953B
:100C3000A0E0B0E0EEE1F6E00C94230CDC0128012A
:100C40001696AD90BC901797F7018081918112960E
:100C5000ED91FC9113971896CD91DC9119972197FE
:100C6000F7FF02C0E1E0F0E0CA0DDB1D1882690168
:100C7000A1E0B0E08F01021B130B4C01F2E08F22C8
:100C80009924052C000C66087708CE018A199B0967
:100C9000CA15DB0519F1411551056105710589F08A
:100CA000CB01BA01A30192010E946E0BCA01A62FCB
:100CB000B72F605D6A9341E0C41AD108A901BC0155
:100CC000E4CF98012C0D3D1D121613064CF31C1495
:100CD0001D0434F48114910419F702C080E090E0FF
:100CE000AB2B31F4F701208131812F7E20833183BA
:0A0CF000CDB7DEB7E0E10C94540C20
:100CFA000F931F93CF93DF93EC0185E08093AD6050
:100D0A000E94DE0C8111FCCF02E010E029EA30E6F5
:100D1A0041E050E06DEA70E680E190E00E94D3097C
:100D2A00E9EAF0E6818190E0982F88272081822BDA
:100D3A008883998386E08093AD600E94DE0C8111DE
:100D4A00FCCF02E010E029EA30E641E050E06DEA2B
:100D5A0070E680E190E00E94D309E9EAF0E6818139
:100D6A0090E0982F88272081822B8A839B8387E0B3
:100D7A008093AD600E94DE0C8111FCCF02E010E08E
:100D8A0029EA30E641E050E06DEA70E680E190E061
:100D9A000E94D309E9EAF0E6818190E0982F88273A
:100DAA002081822B8C839D83DF91CF911F910F919C
:020DBA0008959A
:100DBC00A2E0B0E0E4EEF6E00C94250C4C016B01E3
:100DCC00FB012281338164807580808191818983CC
:100DDC009A83A680B78037FD03C08D7F89839A8361
:100DEC00FA014081518162817381CE0101967C01AF
:100DFC0008E010E09301C6010E941806298124FF27
:100E0C0006C00197F501E80FF91F20E32083298123
:100E1C0023FF06C00197F501E80FF91F20E220839C
:100E2C0009811A81F6014085518541505109481BB1
:100E3C00590BB501680F791F9301C4010E949A09DF
:100E4C009C01F4018081918190FF06C0F6018281A2
:100E5C009381821793070CF4C9012296EEE00C944F
:020E6C00560C22
:100E6E00CF93DF938091716090917260019731F40E
:100E7E00E0E0F9E084818460848305C0E0E0F9E07D
:100E8E0084818B7F8483E8E6F0E6818592850197E5
:100E9E0081879287892BB1F0DF01C781D085E0E091
:100EAE00F9E08085888317968D919C91189701960D
:100EBE0017968D939C93189784818C7F8260848380
:100ECE0084E018C0A8E6B0E61796CD91DC9118978D
:100EDE00E0E0F9E08085888317968D919C911897B4
:100EEE00019617968D939C931897848184608483C2
:0A0EFE000E94B00BDF91CF91089520
:100F08000F931F93CF93DF93DB01109719F48FEFA3
:100F18009FEF3DC02D913C91119730FF25C016964B
:100F28004D915C91179714962D913C911597421706
:100F3800530778F41296ED91FC91139780831296DB
:100F48002D913C9113972F5F3F4F12962D933C9311
:100F5800139716962D913C9117972F5F3F4F169632
:100F68002D933C93179713C01C96ED91FC911D97F8
:100F7800309769F2EB01092F182F0995892B39F65B
:100F88008E819F8101968E839F83812F902FDF9181
:080F9800CF911F910F91089504
:100FA00040E068ED80E690E00E941D0E40E068EDB4
:100FB00081E690E00E941D0E40E068ED88E790E039
:100FC0000E941D0E4CE068ED88E690E00E941D0E28
:100FD00040E068ED89E690E00E941D0E40E068ED7B
:100FE00080E790E00E941D0E40E068ED8CE790E005
:100FF0000E941D0E40E068ED82E690E00E941D0E0A
:1010000040E068ED83E690E00E941D0E40E068ED50
:1010100084E690E00E941D0E40E068ED80E890E0DC
:101020000E941D0EE0E6F0E0858181FFFDCF08956E
:10103000AF92BF92CF92DF92EF92FF920F931F93E6
:10104000CF93DF937C015C0100E010E00F2EFCE603
:10105000CF2EF1E8DF2EF02D1EC08091A16090917F
:10106000A26001968093A1609093A26005C0D60112
:101070001A96CD91DC911B97FE010995882369F39F
:10108000D6011696ED91FC911797D5018D915D01D2
:1010900009950F5F1F4FF70101900020E9F7319785
:1010A000EE19FF090E171F0714F3DF91CF911F915F
:1010B0000F91FF90EF90DF90CF90BF90AF90089589
:1010C000A2E0B0E0E6E6F8E00C94250C5C016B01D0
:1010D000FB01228133818480958080819181898385
:1010E0009A836680778037FD03C08D7F89839A83DA
:1010F000FA014081518162817381CE0101967C01A8
:101100000AE010E09401C6010E94180609811A81C4
:10111000F6014085518541505109481B590BB301D7
:10112000680F791F9401C5010E949A099C01F5017D
:101130008081918190FF06C0F601828193818217A0
:0E11400093070CF4C9012296EEE00C94560CB5
:10114E000F931F93CF93DF93EC0184E08093AC60F9
:10115E000E94DE0C8111FCCF02E010E029EA30E69D
:10116E0041E050E06CEA70E680E190E00E94D30925
:10117E00E9EAF0E6818190E0982F88272081822B82
:10118E008883998388E08093AC600E94DE0C811185
:10119E00FCCF02E010E029EA30E641E050E06CEAD4
:1011AE0070E680E190E00E94D309E9EAF0E68181E1
:1011BE0090E0982F88272081822B8A839B83DF9152
:0811CE00CF911F910F910895CC
:1011D600A2E8B0E0E1EFF8E00C94270C5C014A01CC
:1011E600CF57DF4F68837983C158D040C12CD12CAB
:1011F600CF57DF4FE881F981C158D04080818823DD
:10120600E9F07401860120E830E0AE014F5F5F4FE0
:10121600BE016F577F4FC5010E94E2008C0D9D1DD8
:101226008C159D054CF48FE490E0809300609093BC
:1012360001608FEF9FEF03C06C01DACFC601CE5776
:08124600DF4FECE00C94580CA2
:10124E00A0E1B0E0EDE2F9E00C942D0CFB01BA0147
:10125E00AE014F5F5F4F7A0140E1D7011D924A9573
:10126E00E9F742E051E049835A838B839C83F7FF71
:10127E0009C08FE490E080930060909301608FEF3F
:10128E009FEF14C0A9018C013197ED83FE83C70136
:10129E000E943A0C4F8158852D813E81421753078B
:1012AE0008F49A01F801E20FF31F10826096E6E04F
:0412BE000C945E0C22
:1012C20010929F601092A0608091010882FF0CC072
:1012D200EFE9F0E6808182608083E0919D60F09189
:1012E2009E60309709F009958091010881FF0CC03A
:1012F200EFE9F0E6808181608083E0919960F0916E
:101302009A60309709F009958091010886FF0CC018
:10131200EFE9F0E6808184608083E0919B60F09148
:101322009C60309709F0099580919F609091A06030
:0213320008951C
:10133400A0E0B0E0E0EAF9E00C94270C6C015B015A
:101344007A01E901480181E08822992400FD03C063
:101354004217530750F0A701B501C6010E94EB0BD9
:10136400EC16FD0610F0C70117C08E010E191F09F7
:101374000115110541F0B60180E290E00E94840756
:1013840001501109F5CF8114910429F4A701B50185
:10139400C6010E94EB0BCE01CDB7DEB7ECE00C9496
:0213A400580CE3
:1013A6008F929F92AF92BF92CF92DF92EF92FF926F
:1013B6000F931F93CF93DF935C016B017A01490171
:1013C6000E94DE0C811115C0C8E6D0E681E0888354
:1013D600A982BA828B87CB82DC82ED82FE828F82E3
:1013E600988609871A871C860E947F0D8D8781E063
:1013F60001C080E0DF91CF911F910F91FF90EF9098
:0E140600DF90CF90BF90AF909F908F90089591
:101414001F920F920FB60F9211242F933F934F9365
:101424005F936F937F938F939F93AF93BF93EF9348
:10143400FF931B9B05C0E0919160F0919260099528
:101444001A9B05C0E0918F60F091906009958FEF31
:1014540083B9FF91EF91BF91AF919F918F917F914C
:101464006F915F914F913F912F910F900FBE0F900D
:041474001F90189518
:101478001F920F920FB60F9211242F933F934F9301
:101488005F936F937F938F939F93AF93BF93EF93E4
:10149800FF937D9B05C0E0919560F091966009955A
:1014A8007C9B05C0E0919360F091946009958FEF63
:1014B8008FB9FF91EF91BF91AF919F918F917F91DC
:1014C8006F915F914F913F912F910F900FBE0F90A9
:0414D8001F901895B4
:1014DC001F920F920FB60F9211242F933F934F939D
:1014EC005F936F937F938F939F93AF93BF93EF9380
:1014FC00FF938091060B80FF0AC0E0919760F091FA
:10150C009860309709F0099581E08093060BFF9164
:10151C00EF91BF91AF919F918F917F916F915F915F
:10152C004F913F912F910F900FBE0F901F901895D8
:10153C00CF92DF92EF92FF920F931F93CF93DF9393
:10154C006C017B018A010E94DE0C811115C0C8E67A
:10155C00D0E681E08883C982DA821B86EB82FC822A
:10156C000D831E831F82188619861A861C860E947C
:10157C007F0D8D8781E001C080E0DF91CF911F91BD
:0C158C000F91FF90EF90DF90CF9008953A
:10159800DC01ED91FC91119780818A3221F080E085
:1015A80090E03AE00EC03196ED93FC93DB01ED91AB
:1015B800FC911197CF0102968D939C938081918124
:1015C8000895ED91FC911197208120532A3068F4F9
:1015D800389FA001399F500D1124CA01820F911D17
:0C15E8003196ED93FC931197ECCF089521
:1015F400A0E0B0E0E0E0FBE00C94290C7C01FB01EE
:10160400EA01C901A280B380C480D5800081118120
:10161400209711F4C6E7D0E6009719F4CE010E9492
:10162400ED0CB7FC04C0A816B90608F4C501960170
:10163400AC01BE01C7010E949A09CDB7DEB7EAE04A
:041644000C945A0C9C
:10164800E0E0F8E08AE890E080879187158280ECF6
:10165800868383E08783138614861686158683E33C
:101668009EE080939D6090939E6084E39EE08093CB
:101678009B6090939C6085E39EE080939960909333
:0C1688009A6010929F601092A06008957C
:1016940080916D6090916E60892B99F0E8E6F0E698
:1016A40085819681019785839683A381B4818C91EA
:1016B400809308098381948101968383948383E0D2
:1016C400089580917360882321F01092736081E003
:0816D40008950E94B00B089577
:1016DC00A1E21A2EAA1BBB1BFD010DC0AA1FBB1F2A
:1016EC00EE1FFF1FA217B307E407F50720F0A21B9C
:1016FC00B30BE40BF50B661F771F881F991F1A9409
:10170C0069F760957095809590959B01AC01BD0132
:04171C00CF0108955C
:10172000CF93DF93EC0190E0E92FF0E0EE0FFF1F85
:10173000EE5AFF498081811102C081810EC0A881CB
:10174000B9812C91821305C091811196A883B98328
:1017500001C09F5F9B3040F3892FDF91CF910895A7
:10176000A0E0B9E014968C911497836014968C9342
:101770001497E8E6F0E610828FEF90E08183928381
:101780001382148217821086158680EC15968C932E
:0C179000159781E015968C9380E0089579
:10179C000F931F930E94DE0C8111FCCF02E010E02E
:1017AC0023EA30E641E050E06BEA70E681E590E038
:1017BC000E94D309E3EAF0E6818190E0982F882714
:0A17CC002081822B1F910F910895D8
:1017D600A0E0B0E0E1EFFBE00C942B0C6C01EB0118
:1017E6008A017B01E40EF51ECE15DF0541F08991D5
:1017F600B601082E000C990B0E948407F5CFC8018C
:0A180600CDB7DEB7E8E00C945C0CEF
:10181000E0E0FBE080818E7F80831182108614825D
:1018200080EA9FE08487958712861386168282E37A
:101830009EE0809397609093986081E08583808399
:02184000089509
:101842002F923F924F925F926F927F928F929F92CE
:10185200AF92BF92CF92DF92EF92FF920F931F93BC
:10186200CF93DF93CDB7DEB7CA1BDB0BCDBFDEBF95
:021872000994D7
:10187400A2E0B0E0E0E4FCE00C942F0C8C0149837E
:101884005A83AE014F5F5F4F0E94EB08F80120813D
:1018940024FF02C08FEF9FEF2296E4E00C94600CCB
:1018A4002A88398848885F846E847D848C849B84EC
:1018B400AA84B984C884DF80EE80FD800C811B81FA
:1018C400AA81B981CE0FD11DCDBFDEBFED01089530
:1018D400E0E0F9E083818E7F8383108212828EE0C0
:1018E4008683178210861582148281EC838381E0BB
:0C18F400858310928D6010928E60089524
:10190000F8948091836090918460A0918560B091FB
:1019100086600196A11DB11D8093836090938460C1
:0C192000A0938560B093866078940895D1
:10192C00882349F0E0E0F8E0868184608683848136
:10193C00816084830895E0E0F8E08681897F868366
:08194C0084818D7F84830895DE
:10195400E0E0FBE080818E7F80831486158612860A
:1019640013861182108614821582118610828FEFDD
:0419740086830895C9
:10197800A0E0B0E0E2ECFCE00C94310CAE01475F73
:101988005F4F6F8178858D819E810E94C30DE2E053
:041998000C94620C3D
:10199C0080958093A6600E94DE0C8111FCCF42E002
:1019AC0050E065EA70E685E290E00E949E0A089598
:1019BC0080916860811108C090910509937081E055
:0E19CC00913019F480E001C081E0817008952F
:1019DA00FC01AF014F5F5F4F2081222311F0FA0112
:0C19EA00F8CF9F01281B390BC90108959C
:1019F60040E068ED80E191E00E941D0EE0E1F1E03B
:0A1A060012821382789480E00895A4
:101A10000E94D0070E9440050E946A0C0E94080C98
:0A1A20000E94240B0E94FB0C0895A5
:101A2A000E94DE0C8111FCCF43E050E067E870E6CB
:0A1A3A0081E590E00E949E0A0895E5
:101A44000E94DE0C8111FCCF42E050E067EA70E6B0
:0A1A540085E290E00E949E0A0895CA
:101A5E000E94DE0C8111FCCF43E050E06AE870E694
:0A1A6E0080E190E00E949E0A0895B6
:101A7800E0E0F9E083818E7F8383838181608383C3
:081A88001092686080E00895EF
:101A9000E0E0F8E010861186158216821782138620
:081AA0001486168615860895D0
:101AA800F89410928360109284601092856010926E
:061AB80086607894089599
:101ABE00F8946091836070918460809185609091BC
:061ACE0086607894089583
:101AD400EC010E94370E0E94360ECE010E94380E91
:061AE400CE010E942C0E51
:101AEA008091696090916A60880F8160809307098C
:041AFA0084E00895E7
:101AFE008091696090916A60880F8093070983E0F6
:021B0E00089538
:101B10009C01215631092A31310510F48F7599271E
:021B2000089526
:101B22009C01215431092A31310508F4806208955B
:0E1B32001092686081E08093050988E00895B4
:0E1B400060910A0B70910B0B80E090E008950D
:0E1B4E0060910C0B70910D0B80E090E00895FB
:0E1B5C00009721F080939D6090939E60089505
:0E1B6A00009721F080939B6090939C600895FB
:0E1B7800009721F08093996090939A600895F1
:0E1B86009A01AB016FEF7FE70E9427090895D7
:0C1B940080EC809305090E943C0D089530
:0C1BA000E0E0FBE080818160808308951C
:0C1BAC00E0E0FBE080818E7F80830895E4
:0C1BB800E0E0F8E08681806486830895F8
:0C1BC400E0E0F8E086818F7B86830895C6
:0C1BD00080910408881F8827881F089552
:0C1BDC008091040885FB882780F908959B
:0C1BE8008091040886FB882780F908958E
:0A1BF4008F938FEF8BB98F91189536
:0A1BFE008F938FEF87BB8F9118952E
:0A1C080060930A0B70930B0B089514
:0A1C120060930C0B70930D0B089506
:0A1C1C006FEF7FEF80E090E0089585
:0A1C260080939760909398600895F2
:0A1C300080910408869581700895E4
:081C3A00FC0164BF4083089522
:061C42000E94B00B0895A2
:061C4800809100080895E0
:061C4E00809302080895D6
:041C54000C940000EC
:041C58000E949A004C
:021C5C000895E9
:021C5E000895E7
:021C60000895E5
:021C62000895E3
:021C64000895E1
:021C66000895DF
:021C68000895DD
:021C6A000895DB
:021C6C000895D9
:021C6E000895D7
:021C70000895D5
:101C720068076C094C836A9074A07AC000806888F7
:061C820000846C82008169
:071C8800286E756C6C290049
:061C8F00286E696C2900BB
:031C950003060043
:021C9800090041
:011C9A000841
:02000004008278
:090000000000000000D00800001F
:00000001FF
